:100000000C9434000C9451000C9451000C94510049
:100010000C9448010C9451000C9451000C94510024
:100020000C9451000C9451000C9451000C9451000C
:100030000C9451000C9451000C9451000C945100FC
:100040000C9451000C9451000C94A3000C9451009A
:100050000C9451000C9451000C9451000C945100DC
:100060000C9451000C94510011241FBECFEFD8E026
:10007000DEBFCDBF11E0A0E0B1E0E8E6F2E102C0F2
:1000800005900D92AC34B107D9F721E0ACE4B1E0B2
:1000900001C01D92AC35B207E1F70E9466050C94D1
:1000A00032090C940000E1ECF0E0808188698083E3
:1000B00086E08093C200519A87E690E09093C50055
:1000C0008093C400399A419808959091C00095FF9B
:1000D000FCCF8093C6000895CF93DF9300D000D06B
:1000E0001F92CDB7DEB79E012F5F3F4F843628F4B5
:1000F0001F928F9384E091E004C01F928F9389E058
:1001000091E09F938F931F9285E08F933F932F935E
:100110000E9453060FB6F894DEBF0FBECDBF898193
:100120000E9465008A810E9465008B810E946500A3
:100130008C810E9465000F900F900F900F900F9090
:10014000DF91CF9108951F920F920FB60F92112455
:100150008F939F938091C6008D3211F08B3221F4E2
:100160008093570181E007C090914C01913041F498
:100170008093580182E080934C011092530110C08B
:10018000923021F48093590183E0F5CF933041F40C
:1001900080935A0184E080934C0181E08093530165
:1001A0009F918F910F900FBE0F901F9018951F92E7
:1001B0008F938AE091E09F938F931F9288E28F93B1
:1001C0007F936F930E9453068DB79EB708960FB624
:1001D000F8949EBF0FBE8DBF08950E9414050C9425
:1001E000C604CF93DF93EC010E94ED048881880F51
:1001F000998191118F5F29E0829FC00111246AE0EB
:1002000070E00E942B0680E2860FDF91CF91089567
:100210000F931F93CF93DF9300D0CDB7DEB78C0140
:1002200069837A830E94ED04F8019181808169815C
:100230007A81992329F01F928F938DE091E004C079
:100240001F928F9382E191E09F938F931F9288E298
:100250008F937F936F930E9453060FB6F894DEBF7F
:100260000FBECDBF0F900F90DF91CF911F910F91D7
:100270000895E8E6F0E0808182608083ECE6F0E0BB
:1002800080818C60808388B18C6088B9789408956F
:100290001F920F920FB60F9211242F933F934F93FB
:1002A0005F936F937F938F939F93EF9386B182FBBE
:1002B000882780F9382F80934E0126B123FB22270F
:1002C00020F9922F20934F01211104C041E04827CB
:1002D000417001C040E040935601911102C0782F57
:1002E00001C070E070935401992311F0682F01C090
:1002F00060E060935B01992311F051E0311150E00F
:1003000050935501E09151018091020190910301B8
:100310002091000130910101EE2309F45CC02817FF
:1003200039070CF049C0442381F040914D01413020
:1003300011F4019703C0433029F40196909303010F
:100340008093020110924D0134C0772379F04091DF
:100350004D01423011F4019703C0411105C00196CF
:10036000909303018093020181E021C0662379F01C
:1003700040914D01433011F4019703C0413029F4FD
:100380000196909303018093020182E010C05523EF
:1003900081F040914D01411102C0019703C04230EC
:1003A00029F40196909303018093020183E08093E6
:1003B0004D0181E0809350018091020190910301F1
:1003C000281739070CF468C02F5F3F4F30930301A3
:1003D0002093020161C0281739070CF05DC0442347
:1003E00091F040914D01413019F42150310904C080
:1003F000433031F42F5F3F4F3093010120930001D0
:1004000010924D013AC0772389F040914D0142305E
:1004100019F42150310904C0411106C02F5F3F4F2C
:10042000309301012093000121E025C0662389F06B
:1004300040914D01433019F42150310904C041303D
:1004400031F42F5F3F4F309301012093000122E0F0
:1004500012C0552391F040914D01411103C021502C
:10046000310904C0423031F42F5F3F4F3093010116
:100470002093000123E020934D0121E020935001BF
:100480002091000130910101281739072CF00197C4
:100490009093010180930001EF919F918F917F9143
:1004A0006F915F914F913F912F910F900FBE0F90E1
:1004B0001F901895DF92EF92FF920F931F93CF93A7
:1004C000DF93CDB7DEB7C455D1090FB6F894DEBFC0
:1004D0000FBECDBF182F7B0180E064962FAF6497CD
:1004E00065963FAF659762964FAF629763965FAF31
:1004F00063970E945B031F921F93E7E1F1E0FF9374
:10050000EF931F9288E2D82EDF928E01075D1F4F76
:100510001F930F930E945306C8010E94B003C701A6
:100520000E94B00380E40E945B0365963FAD65972F
:100530003F9364962FAD64972F9363965FAD639757
:100540005F9362964FAD62974F9385E291E09F93E0
:100550008F931F92DF92085211091F930F930E94ED
:100560005306C8010E94B0030FB6F894DEBF0FBE59
:10057000CDBFCC5ADF4F0FB6F894DEBF0FBECDBF54
:10058000DF91CF911F910F91FF90EF90DF90089531
:10059000EF92FF920F931F93CF93DF93CDB7DEB708
:1005A000A8970FB6F894DEBF0FBECDBF182F7B0102
:1005B00080E00E945B031F921F9327E131E03F938D
:1005C0002F931F9288E28F938E010F5F1F4F1F930F
:1005D0000F930E945306C8010E94B003C7010E94F6
:1005E000B0030FB6F894DEBF0FBECDBFA8960FB60E
:1005F000F894DEBF0FBECDBFDF91CF911F910F9159
:10060000FF90EF9008950F931F93CF93DF93CDB793
:10061000DEB7AB970FB6F894DEBF0FBECDBF182F75
:1006200080E46AA77BA799A70E945B037BA57F93C1
:100630006AA56F9399A59F931F9385E291E09F937D
:100640008F931F9288E28F938E010F5F1F4F1F932E
:100650000F930E945306C8010E94B0030FB6F8948E
:10066000DEBF0FBECDBFAB960FB6F894DEBF0FBE98
:10067000CDBFDF91CF911F910F9108959BB19F70D6
:100680009BB99BB1807F892B8BB9299A299A29988C
:100690000895CF93C82F28980E943E038C2F8295EF
:1006A000807F0E943E038FE39FE10197F1F700C036
:1006B0000000CF9108958093520180580C94490313
:1006C0008AB18F708AB98AB1806F8AB984B18C7F00
:1006D00084B984B1836084B98FE59AEE0197F1F70C
:1006E00000C00000289880E30E943E038FE19EE452
:1006F0000197F1F700C0000080E30E943E038FE8FD
:1007000091E00197F1F700C0000080E30E943E03F2
:1007100080E20E943E038FE39FE10197F1F700C062
:10072000000088E20E9449038FE00E9449038FE3A2
:100730009FE10197F1F700C000000895CF93C82F03
:10074000289A0E943E038C2F8295807F0E943E0350
:100750008FE39FE10197F1F700C00000CF9108956A
:100760000F931F93CF93DF93EC0100E488818823DC
:1007700001F11F3211F48E3639F08F3219F499815C
:100780009E3611F00E949E0319918091520191E0D2
:10079000980F909352018F50803328F01F3231F719
:1007A00088818E3619F70093520180E40E945B0322
:1007B000DDCFDF91CF911F910F9108950F931F937C
:1007C000CF93DF93EC0100E48881882301F11F328D
:1007D00011F48E3639F08F3219F499819E3611F06A
:1007E0000E949E0319918091520191E0980F90937D
:1007F00052018F50803328F01F3231F788818E36B6
:1008000019F70093520180E40E945B03DDCFDF9172
:10081000CF911F910F910895CF92DF92EF92FF92A7
:100820000F931F934115510521F40115110509F48A
:10083000A0C094EA9093BC009091BC0097FFFCCFBD
:100840009091B900987F983009F068C0982F9E7FEA
:100850009093BB0094E89093BC009091BC0097FFEC
:10086000FCCF9091B900987F983121F0903209F037
:1008700055C051C0FB01460F571F64E8E417F50748
:1008800091F091919093BB006093BC009091BC005B
:1008900097FFFCCF9091B900987F983279F390330D
:1008A000E9F590E338C0F901020F131F24E8E017BF
:1008B000F10779F091919093BB002093BC00909147
:1008C000BC0097FFFCCF9091B900987F983279F3E4
:1008D000E6CFC114D10409F44AC020E194EA909310
:1008E000BC009091BC0097FFFCCF9091B900987F1D
:1008F000921314C081608093BB0084E88093BC0095
:100900008091BC0087FFFCCF9091B900987F903414
:1009100039F0983419F484E98093BC00892F2FC0F2
:10092000F70184EC91E0C916D10491F08093BC00EA
:100930009091BC0097FFFCCF9091B900987F21E087
:10094000C21AD108903551F79091BB009193EACF2C
:1009500084E88093BC008091BC0087FFFCCF90911D
:10096000B900987F9835D1F68091BB00808390E0E4
:10097000D2CFC114D10411F028E0B0CF80E01F9194
:100980000F91FF90EF90DF90CF900895CF92DF927C
:10099000EF92FF920F931F93CF93DF931F92CDB7E8
:1009A000DEB78EEE8983C12CD12CE12CF12C00E036
:1009B00010E020E030E041E050E0BE016F5F7F4F8B
:1009C00080E90E940C040F90DF91CF911F910F914D
:1009D000FF90EF90DF90CF900895CF92DF92EF924B
:1009E000FF920F931F93CF93DF931F92CDB7DEB784
:1009F0002AEA298322E0C22ED12C7C0100E010E0FB
:100A000020E030E041E050E0BE016F5F7F4F80E9C1
:100A10000E940C040F90DF91CF911F910F91FF90D6
:100A2000EF90DF90CF900895CF92DF92EF92FF92F8
:100A30000F931F93CF93DF9300D0CDB7DEB7109203
:100A4000B90089E48093B8008CEA898382E08A83C4
:100A5000C12CD12CE12CF12C00E010E020E030E0A2
:100A600042E050E0BE016F5F7F4F80E90E940C04BE
:100A70000F900F90DF91CF911F910F91FF90EF900A
:100A8000DF90CF9008951092B9008093B800089538
:100A90008AB18C608AB908955A9A08955A9808952F
:100AA0005B9A08955B980895239885B1886185B90C
:100AB000089583B18295817091E08927089583B16B
:100AC00083FB882780F991E089270895CF93DF93EE
:100AD000CDB7DEB7EA970FB6F894DEBF0FBECDBF35
:100AE0000E9453000E9448050E9439010E9454054B
:100AF0000E94ED000E94600381E00E94490380E3B0
:100B000089A78AA71BA6CE01C9960E94F100182FBB
:100B1000BE016F5F7F4F0E94D70081E00E944903B2
:100B200084E391E00E94B003CE0101960E94B003DD
:100B30002FEF87EA91E6215080409040E1F700C016
:100B40000000209102013091030140910001509179
:100B50000101BE01675D7F4F812F0E945A0210E0A4
:100B6000EE24E394CE01C9960E94F100F82E81177D
:100B700081F02091020130910301409100015091D8
:100B80000101BE01675D7F4F0E945A028F2D0E94B6
:100B90006C0080915301813021F5809158018033A0
:100BA00041F48091590189A780915A018AA71BA617
:100BB0000AC08091580189A7809159018AA7809124
:100BC0005A018BA71CA6209102013091030140918C
:100BD000000150910101BE01675D7F4F8F2D0E9482
:100BE0005A020E945F05882319F0E092510105C066
:100BF0000E94590581111092510180915001882362
:100C000071F0209102013091030140910001509157
:100C10000101BE01675D7F4F8F2D0E945A020F2D8B
:100C200010E02091020130910301201731071CF4DC
:100C30000E94500502C00E9452052091000130918F
:100C400001010217130724F40E944C051F2D8ACFBF
:100C50000E944E05FBCF97FB072E16F4009407D099
:100C600077FD09D00E943F0607FC05D03EF4909521
:100C700081959F4F0895709561957F4F0895AA1BA8
:100C8000BB1B51E107C0AA1FBB1FA617B70710F077
:100C9000A61BB70B881F991F5A95A9F780959095A9
:100CA000BC01CD010895AEE0B0E0E9E5F6E00C94BA
:100CB00009090D891E898F89988D26E02C831A8356
:100CC000098397FF02C080E090E801979E838D839F
:100CD000AE01455E5F4F698D7A8DCE0101960E940F
:100CE00083064D815E8157FD0AC02F8138854217EA
:100CF00053070CF49A01F801E20FF31F10822E96AD
:100D0000E4E00C942509ACE0B0E0E9E8F6E00C94EE
:100D1000FB087C016B018A01FC011782168283812A
:100D200081FFBDC1CE0101964C01F7019381F6010F
:100D300093FD859193FF81916F01882309F4ABC1E5
:100D4000853239F493FD859193FF81916F0185324E
:100D500029F4B70190E00E946B08E7CF512C312CA9
:100D600020E02032A0F48B3269F030F4803259F068
:100D7000833269F420612CC08D3239F0803339F42C
:100D8000216026C02260246023C0286021C027FD86
:100D900027C030ED380F3A3078F426FF06C0FAE06D
:100DA0005F9E300D1124532E13C08AE0389E300D03
:100DB0001124332E20620CC08E3221F426FD6BC12B
:100DC000206406C08C3611F4206802C0883641F4D5
:100DD000F60193FD859193FF81916F018111C1CF40
:100DE000982F9F7D9554933028F40C5F1F4FFFE39D
:100DF000F9830DC0833631F0833771F0833509F004
:100E00005BC022C0F801808189830E5F1F4F44249C
:100E10004394512C540115C03801F2E06F0E711C3F
:100E2000F801A080B18026FF03C0652D70E002C0EC
:100E30006FEF7FEFC5012C870E9460082C018301B2
:100E40002C852F77222E17C03801F2E06F0E711C0F
:100E5000F801A080B18026FF03C0652D70E002C0BC
:100E60006FEF7FEFC5012C870E9455082C012C8560
:100E70002068222E830123FC1BC0832D90E048169E
:100E80005906B0F4B70180E290E00E946B083A94F2
:100E9000F4CFF50127FC859127FE81915F01B70111
:100EA00090E00E946B0831103A94F1E04F1A51081B
:100EB0004114510471F7E5C0843611F0893639F5D3
:100EC000F80127FF07C060817181828193810C5FE7
:100ED0001F4F08C060817181882777FD8095982F0A
:100EE0000E5F1F4F2F76B22E97FF09C09095809509
:100EF000709561957F4F8F4F9F4F2068B22E2AE0EB
:100F000030E0A4010E949D08A82EA81844C085378F
:100F100029F42F7EB22E2AE030E025C0F22FF97F8F
:100F2000BF2E8F36C1F018F4883579F0B4C0803701
:100F300019F0883721F0AFC02F2F2061B22EB4FEF8
:100F40000DC08B2D8460B82E09C024FF0AC09F2FCE
:100F50009660B92E06C028E030E005C020E130E000
:100F600002C020E132E0F801B7FE07C06081718164
:100F7000828193810C5F1F4F06C06081718180E088
:100F800090E00E5F1F4FA4010E949D08A82EA81894
:100F9000FB2DFF77BF2EB6FE0BC02B2D2E7FA51489
:100FA00050F4B4FE0AC0B2FC08C02B2D2E7E05C042
:100FB0007A2C2B2D03C07A2C01C0752C24FF0DC078
:100FC000FE01EA0DF11D8081803311F4297E09C0F4
:100FD00022FF06C07394739404C0822F867809F0B0
:100FE000739423FD13C020FF06C05A2C731418F409
:100FF000530C5718732C731468F4B70180E290E017
:101000002C870E946B0873942C85F5CF731410F411
:10101000371801C0312C24FF12C0B70180E390E0E3
:101020002C870E946B082C8522FF17C021FF03C06C
:1010300088E590E002C088E790E0B7010CC0822FFD
:10104000867859F021FD02C080E201C08BE227FDC5
:101050008DE2B70190E00E946B08A51438F4B70147
:1010600080E390E00E946B085A94F7CFAA94F401B1
:10107000EA0DF11D8081B70190E00E946B08A1107C
:10108000F5CF332009F451CEB70180E290E00E9401
:101090006B083A94F6CFF7018681978102C08FEFF3
:1010A0009FEF2C96E2E10C941709FC01059061502A
:1010B00070400110D8F7809590958E0F9F1F08956E
:1010C000FC016150704001900110D8F78095909517
:1010D0008E0F9F1F08950F931F93CF93DF93182FA9
:1010E000092FEB018B8181FD03C08FEF9FEF20C0A3
:1010F00082FF10C04E815F812C813D8142175307D2
:101100007CF4E881F9819F012F5F3F4F3983288369
:10111000108306C0E885F985812F0995892B29F769
:101120002E813F812F5F3F4F3F832E83812F902F52
:10113000DF91CF911F910F910895FA01AA272830CE
:1011400051F1203181F1E8946F936E7F6E5F7F4F94
:101150008F4F9F4FAF4FB1E03ED0B4E03CD0670F10
:10116000781F891F9A1FA11D680F791F8A1F911D63
:10117000A11D6A0F711D811D911DA11D20D009F4B3
:1011800068943F912AE0269F11243019305D3193F5
:10119000DEF6CF010895462F4770405D4193B3E0DE
:1011A0000FD0C9F7F6CF462F4F70405D4A3318F085
:1011B000495D31FD4052419302D0A9F7EACFB4E036
:1011C000A6959795879577956795BA95C9F70097EE
:1011D0006105710508959B01AC010A2E069457958F
:1011E000479537952795BA95C9F7620F731F841FE6
:1011F000951FA01D08952F923F924F925F926F927C
:101200007F928F929F92AF92BF92CF92DF92EF9296
:10121000FF920F931F93CF93DF93CDB7DEB7CA1B17
:10122000DB0B0FB6F894DEBF0FBECDBF09942A8842
:10123000398848885F846E847D848C849B84AA84EA
:10124000B984C884DF80EE80FD800C811B81AA8177
:10125000B981CE0FD11D0FB6F894DEBF0FBECDBF42
:08126000ED010895F894FFCFA1
:101268003C0050002B302564002B25640025642E9B
:10127800350025642E300054656D703A20256420B1
:10128800526D743A004C6F773A2564204869676854
:101298003A256400416C6563277320414320556EED
:0C12A80069742F6E54656D703A200000D0
:00000001FF
